:100000000C9434000C9449000C9449000C94490061
:100010000C9449000C9449000C9449000C9449003C
:100020000C9449000C9449000C9449000C9449002C
:100030000C9449000C9449000C9449000C9449001C
:100040000C9449000C9449000C9449000C9449000C
:100050000C9449000C9449000C9449000C944900FC
:100060000C9449000C94490011241FBECFEFD8E036
:10007000DEBFCDBF11E0A0E0B1E0E6EDF4E002C0EC
:1000800005900D92A236B107D9F70E941A010C947F
:1000900069020C9400004091C1008091C100877FEB
:1000A0008093C10080E090E05FEF61E070E02AB1F2
:1000B0002F602AB95BB9EBB19B01082E01C0220F5A
:1000C0000A94EAF720952E232BB92AE12A95F1F715
:1000D00000C029B1E22FE07124FF05C04D9B11C083
:1000E0004E9911C0E2E04093C1009C01220F331FE2
:1000F000820F931F80509F4FE80FF92FF11D8081D1
:100100000895E1E0F0CF01968430910581F64093A7
:10011000C10080E008950C944B00459A8FE99FE060
:100120000197F1F700C0000045988FE99FE0019723
:10013000F1F700C00000089598B1917E98B980FD54
:10014000449A81FD439A82FD429A83FD419A0C9420
:100150008D00CF93C82F409882958F700E949C008D
:100160008C2F0E949C008FE39FE10197F1F700C064
:100170000000CF910895CF93C82F409A82958F7039
:100180000E949C008C2F0E949C008FE39FE10197AE
:10019000F1F700C00000CF9108958FE387B92FEFEA
:1001A00081EE94E0215080409040E1F700C00000D3
:1001B00083E00E949C008FE39CE90197F1F700C067
:1001C000000082E00E949C008FE19EE40197F1F71D
:1001D00000C0000088E20E94A9008CE00E94A900F3
:1001E00086E00E94A90081E00E94A9008FE39FE1C0
:1001F0000197F1F700C000000895CF93DF93EC0161
:100200008991811103C0DF91CF9108950E94BB00B5
:10021000F7CF9C01F999FECF32BD21BD60BDFA9A9E
:10022000F99A08959C01F999FECF32BD21BDF89A43
:1002300080B5089500D000D00F92CDB7DEB70E94F0
:10024000CD008E010F5F1F4F85E0F80111928A9556
:10025000E9F727982F9A84B1806384B985B18F7CA0
:1002600085B9239A2B9881E00E94A9008CE091E047
:100270000E94FD0085E0F82EFFEF27E883E1F150B2
:1002800020408040E1F700C0000084E191E00E943E
:10029000FD00FA9489F79FEFE9E6F8E19150E0401C
:1002A000F040E1F700C0000081E00E94A90086E173
:1002B00091E00E94FD002FEF8FE097E221508040F7
:1002C0009040E1F700C0000081E00E94A900F12CFD
:1002D0000E948B00811549F18A3209F05DC081E0EE
:1002E0000E94A90019821A821B821C821D8286E24A
:1002F00091E00E94FD00EFEFF9E628E1E150F040C7
:100300002040E1F700C0000081E00E94A900F12C2C
:100310000E948B008111FCCF8FEF91EEE4E08150C1
:100320009040E040E1F700C000001F99D1CF81E08C
:100330000E94A9008CE491E00E94FD00FFEF23EDF4
:1003400080E3F15020408040E1F700C000001982B6
:100350001A821B821C821D82F12C0E948B00811547
:10036000E1F38A32D1F38332C1F3EE24E394EF0C4C
:10037000F801EF0DF11D808381E00E94A900C80102
:100380000E94FD000E948B008111FCCF94E0E916D1
:1003900009F474C0FE2CE1CF833209F058C084E028
:1003A000F81242C06801E12CF12CF601B1906F0106
:1003B000C7010E94120190E00B2C001C0008B81627
:1003C000090691F5FFEFEF1AFF0A24E0E216F104A7
:1003D00061F7FF24F39481E00E94A900F11431F148
:1003E0008EE291E00E94FD002C9A2D982B9A8FEFBF
:1003F0009BE7E2E981509040E040E1F700C0000057
:100400002C982B989FEFE3EDF0E39150E040F04003
:10041000E1F700C0000081E00E94A90019821A8261
:100420001B821C821D8273CFF12CD5CF8DE391E00E
:100430000E94FD002D9A2C98FFEF2DE389E4F150E6
:1004400020408040E1F700C000002D98DBCF24E081
:10045000F21608F05DCFEE24E394EF0CF801EF0DF7
:10046000F11D8083F801EE0DF11D108281E00E94E4
:10047000A900C8010E94FD00FE2C4ACF6801E12CB2
:10048000F12CF60161916F01C7010E940901FFEF94
:10049000EF1AFF0A24E0E216F10499F781E00E94C6
:1004A000A9008AE591E00E94FD008FEF9DE3E9E459
:1004B00081509040E040E1F700C0000019821A82AC
:1004C0001B821C821D8281E00E94A9001F9BFECF1F
:0604D000FECEF894FFCF00
:1004D60033323136353439383723302A4C6F61643C
:1004E600696E67002E00456E7465722050617373E5
:1004F600776F72643A00436C6561726564004163AC
:1005060063657373204772616E7465640057726F1A
:100516006E672050617373776F7264004E65772043
:1005260050617373776F72643A0053617665642124
:020536000000C3
:00000001FF
